:020000040800F2
:10000000F807002089010008A7180008EB1600086F
:10001000A51800088F0200088D1C000800000000D1
:10002000000000000000000000000000AB18000805
:10003000B502000800000000A9180008AD1800086B
:10004000A3010008A3010008A3010008A301000800
:10005000A3010008A3010008A3010008A3010008F0
:10006000A3010008A3010008A3010008A3010008E0
:10007000A3010008A30100089D020008A9020008CE
:10008000A3010008A3010008A3010008A3010008C0
:10009000811C000891020008A3010008A3010008C8
:1000A000A301000811190008A3010008A30100081A
:1000B0001D190008A3010008A3010008A3010008FE
:1000C000A3010008A3010008A3010008A301000880
:1000D000A30100080D1A0008A3010008A3010008ED
:1000E000A3010008A3010008A301000800F002F822
:1000F00000F03AF80AA090E8000C82448344AAF188
:100100000107DA4501D100F02FF8AFF2090EBAE885
:100110000F0013F0010F18BFFB1A43F0010318473B
:10012000DC1B0000FC1B0000103A24BF78C878C11B
:10013000FAD8520724BF30C830C144BF04680C60ED
:10014000704700000023002400250026103A28BF35
:1001500078C1FBD8520728BF30C148BF0B60704739
:100160001FB51FBD10B510BD00F058F81146FFF7C0
:10017000F7FF01F09CFD00F076F803B4FFF7F2FF03
:1001800003BC00F07DF8000009488047094800479B
:10019000FEE7FEE7FEE7FEE7FEE7FEE7FEE7FEE737
:1001A000FEE7FEE704480549054A064B7047000094
:1001B0000F190008ED000008F8010020F8070020E2
:1001C000F8030020F80300204FF0000200B51346AA
:1001D00094469646203922BFA0E80C50A0E80C5067
:1001E000B1F12001BFF4F7AF090728BFA0E80C5018
:1001F00048BF0CC05DF804EB890028BF40F8042B11
:1002000008BF704748BF20F8022B11F0804F18BF7D
:1002100000F8012B7047704770477047754600F033
:100220002BF8AE4605006946534620F00700854688
:1002300018B020B5FFF7B6FFBDE820404FF000062C
:100240004FF000074FF000084FF0000B21F00701BE
:10025000AC46ACE8C009ACE8C009ACE8C009ACE801
:10026000C0098D46704710B50446AFF300802046A4
:10027000BDE81040FFF781BF00487047940100209F
:1002800001491820ABBEFEE7260002007047FEE7DA
:10029000014800F013B8000010000020014800F0F1
:1002A00037BA000050010020014800F031BA0000C8
:1002B0000C010020704772B6FEE770472DE9F05F31
:1002C0000546006800244669D0F804908768D0F895
:1002D0000CB0D0F810A0D0F81880F10748D0F9077A
:1002E00014D001218160B80703D5284600F0BEF97B
:1002F0000CE0780702D54FF4006407E0380702D518
:100300004FF4805402E0284600F0AFF9F80516D506
:1003100029684FF480708860B80503D5284600F03E
:10032000A7F90CE0780502D544F4005407E038053D
:1003300002D544F4804402E0284600F098F9F8031E
:1003400016D529684FF480308860B80303D5284655
:1003500000F090F90CE0780302D544F4004407E083
:10036000380302D544F4803402E0284600F081F9D5
:10037000300707D55FEACB6004D52968102044F424
:100380000074C86070074FF0080707D55FEA0B706C
:1003900004D52868C760284600F062F9B00706D582
:1003A0002868C068800702D0284600F05AF9700615
:1003B00007D55FEACA6004D52968102044F4806438
:1003C0000861B00607D55FEA0A7004D5286807619E
:1003D000284600F047F9F00606D52868006980072E
:1003E00002D0284600F03FF9B00308D55FEAC960A3
:1003F00005D5296810204860284600F035F9F0033B
:1004000007D55FEA097004D528684760284600F0E0
:1004100032F9300446D55FEA497040D5F00504D57D
:100420005FEAC87001D044F00104B00504D55FEA6A
:10043000887001D544F00204700504D55FEA487065
:1004400001D544F00404300529D518F0700F26D0EA
:1004500008F07000402815D006DC102809D02028AC
:100460000AD0302816D10AE050280ED0602811D1C9
:100470000EE044F008040DE044F010040AE044F0FB
:10048000200407E044F0400404E044F0800401E06C
:1004900044F480742868816921F0700181612968C1
:1004A00004204860002C05D0686A20436862284612
:1004B000FFF703FFBDE8F09F70B5040003D094F888
:1004C000200010B104E0012070BD204600F082F849
:1004D0002068016841F00101016000F0E1FA054681
:1004E000052604E000F0DCFA401B0A2811D8206839
:1004F0004068C007F6D02068016821F00201016061
:1005000000F0CEFA05460BE000F0CAFA401B0A28BC
:1005100006D9606A40F40030606284F82060D2E757
:10052000206840688007EFD4207E01282068016899
:100530003DD021F080010160607E012820680168C3
:1005400038D021F040010160A07E012820680168B8
:1005500033D021F020010160E07E0128206801688D
:100560002ED041F010010160207F01282068016831
:1005700029D021F008010160607F0128206801680E
:1005800024D021F004010160D4E902010843D4E938
:100590000412114308436168491E08432168C86179
:1005A00000206062012084F82000002070BD41F02E
:1005B0008001C0E741F04001C5E741F02001CAE7F2
:1005C00021F01001CFE741F00801D4E741F0040128
:1005D000D9E7000010B586B0002100910191029189
:1005E000039100681B49884232D11B48C16941F020
:1005F0000071C161C16901F000710491816941F02C
:10060000040181618069154C00F0040004904FF4EE
:10061000006000906946204600F052F9A014009056
:1006200002200190032003906946204600F048F91B
:1006300000221146142000F09FFA142000F08EFAD8
:1006400000221146152000F097FA152000F086FAD6
:1006500006B010BD006400400010024000080140D8
:1006600070477047704770477047704770477047D2
:10067000704770477047704710B590F821100024FC
:10068000022903D00421816301243DE001680A6846
:1006900022F00E020A6001680A6822F001020A6074
:1006A0001A4A0168914201D1012121E0174A14320E
:1006B000914201D110211BE0144A2832914201D10C
:1006C000891515E0114A3C32914201D189140FE09D
:1006D0000E4A5032914202D14FF4803108E00B4A69
:1006E0006432914202D14FF4801101E04FF08071E9
:1006F000064A083A5160012180F82110002180F853
:100700002010416B01B18847204610BD080002400F
:100710002DE9F05FC16B0C6801680B68D0F840C030
:10072000042202FA0CF2494DDFF824A1494E4A4F47
:10073000DFF828B1DFF828E122422CD05A072AD569
:100740000A68920603D40A6822F004020A6001686B
:10075000A94201D1042219E0514501D1402215E0FE
:10076000B14202D14FF4806210E0B94202D14FF49D
:1007700080420BE0594502D14FF4802206E07145DA
:1007800002D14FF4800201E04FF080622F49083916
:100790004A60C16A3BE04FF0020808FA0CF818EA18
:1007A000040F4FF000094FF0010235D05FEA837863
:1007B00032D50B689B0605D40B6823F00A030B6047
:1007C00080F821200168A94201D1022219E0514597
:1007D00001D1202215E0B14202D14FF4007210E0A5
:1007E000B94202D14FF400520BE0594502D14FF407
:1007F000003206E0714502D14FF4001201E04FF0E3
:100800000072124908394A6080F82090816A0029F4
:100810001AD0BDE8F05F0847082505FA0CF5254217
:1008200012D01B0710D50B6823F00E030B6090F855
:100830004010C36B02FA01F15960826380F82120F5
:1008400080F82090016BE2E7BDE8F09F08000240CD
:100850001C000240300002404400024058000240A8
:100860006C00024030B528B308C81349142219445B
:10087000B1FBF2F18900C163104981630221417724
:100880001A6843F6F0718A43D0E900142143D0E995
:1008900002452C432143046921434469214384696F
:1008A00021431143196000214163012242770177FE
:1008B000084630BD012030BDF8FFFDBF00000240FA
:1008C0002DE9F84FDFF8B8910024A9F1040B234675
:1008D0000F2709F1040AABF1040EC9E00125A54078
:1008E0002A40AA427DD1674ED1F804C0ACEB06087D
:1008F000B44532D014DCBCF1030F3AD009DCBCF1B2
:10090000000F2AD0BCF1010F1CD0BCF1020F31D175
:100910001DE0BCF1110F17D0BCF1120F2AD119E064
:10092000B8F5881F19D006DCB8F5803F15D0B8F5AA
:10093000801F1FD111E0B8F5001F0ED0B8F5041FBD
:1009400018D10AE0CB6815E0CB681B1D12E0CB681C
:1009500008330FE0CB680C330CE08B682BB1012B14
:100960004FF0080303D0456104E0042302E0056171
:1009700000E00023FF2A01D8064601E000F104064A
:100980004FEA840501D9A5F12005D6F8008007FAC1
:1009900005FC28EA0C0803FA05F548EA0508C6F83C
:1009A00000804D68ED0062D5374DAE6946F0010616
:1009B000AE61AD6924F0030605F001050095334DE5
:1009C00006EB050CDCF80850A607360F07FA06F808
:1009D00025EA0805DFF8B880404503D14FF000084C
:1009E00017E044E0DFF8AC80404502D14FF0010849
:1009F0000FE0DFF8A480404502D14FF0020808E084
:100A0000DFF89880404502D14FF0030801E04FF035
:100A1000040808FA06F848EA0508CCF808804D688A
:100A2000D9F80060ED024D4601D5164300E096432B
:100A30002E604D68DAF80060AD02554601D51643C8
:100A400000E096432E604D68DBF80060AD035D4624
:100A500001D5164300E096432E604D68DEF8006035
:100A6000ED03754601D5164300E096432E60641CE5
:100A70000D682A46E5407FF431AFBDE8F88F0000ED
:100A80000804014000001110001002400000014065
:100A900000080140000C014000100140001401401A
:100AA000014880687047000000000020024881680B
:100AB000027811448160704700000020074810B59B
:100AC000016841F010010160032000F075F80F206B
:100AD00000F006F800F024F8002010BD00200240CD
:100AE00070B50D4D04464FF47A712878B1FBF0F0E3
:100AF0000A490968B1FBF0F000F0DCFA48B9102CA3
:100B000007D200222146501E00F036F800206C600B
:100B100070BD012070BD0000000000200C0000200E
:100B20000C4808B5816941F001018161816901F0DA
:100B300001010091C16941F08051C161C06900F0BB
:100B4000805000900448416821F0E06141F000715C
:100B5000416008BD0010024000000140002809DB90
:100B600000F01F02012191404009800000F1E020C7
:100B7000C0F8001170470000F0B40E4B1B680C4623
:100B8000C3F30223C3F10705042D00D90425191D61
:100B9000072901D2002300E0DB1E012606FA05F139
:100BA000491E214099409E40761E16403143F0BCBC
:100BB00001F06DB80CED00E0064900F0070208688E
:100BC0004FF6FF03184040EA0220034A1043086032
:100BD000704700000CED00E00000FA052DE9F04739
:100BE0000F46050061D0434E306800F00700B84260
:100BF00009D2306820F0070038433060306800F0D8
:100C00000700B84251D128683B4C810712D54007F4
:100C100003D5606840F4E06060602878000703D581
:100C2000606840F4605060606068A96820F0F0007F
:100C3000084360602878C00728D06868012810D071
:100C40002168022810D0890700292EDA616821F076
:100C5000030101436160FFF723FF804641F28839B9
:100C60000DE021688903EFE78901EDE7FFF718FF41
:100C7000A0EB0801494502D90320BDE8F087606870
:100C8000696800F00C00B0EB810FEFD1306800F024
:100C90000700B8420BD9306820F0070038433060B5
:100CA000306800F00700B84201D00120E5E728785D
:100CB000400705D56068E96820F4E060084360609B
:100CC0002878000706D56068296920F4605040EA5A
:100CD000C100606000F038F86168084AC1F3031190
:100CE000515CC8400649086006480068FFF7F8FEF6
:100CF0000020C2E70020024000100240E21C000871
:100D00000C000020040000200448054900684968E0
:100D1000044AC1F30221515CC84070470C00002016
:100D200000100240F21C00080448054900684968A8
:100D3000044AC1F3C221515CC84070470C00002036
:100D400000100240F21C00080E4A51680E4801F0E3
:100D50000C03042B11D0082B0FD10C48C1F3834393
:100D6000C903C05C0AD55168084AC1F34041921ECC
:100D7000515C054A5043B0FBF1F0704704494843C9
:100D8000704700000010024000127A00D21C0008D8
:100D900000093D002DE9F84F040070D02078C04DC7
:100DA000C00749D06868C0F38100012807D068688F
:100DB000C0F38100022809D16868C00306D52868FD
:100DC000800339D560680028E7D035E06068B0F569
:100DD000803F0BD010B1B0F5A02F11D0286820F4BF
:100DE00080302860286820F4802002E0286840F4E1
:100DF00080302860606890B1FFF752FE06460AE036
:100E0000286840F480202860F0E700BFFFF748FE24
:100E1000801B642873D828688003F7D50CE0FFF79F
:100E20003FFE064605E000BFFFF73AFE801B642840
:100E3000F0D828688003F7D420789A4E80074FF0C6
:100E400001094FF0000839D5686810F00C0F07D081
:100E50006868C0F38100022809D16868C00306D41D
:100E60002868800714D52069012808D110E020697E
:100E7000B0B1C6F80090FFF713FE074605E00AE19F
:100E8000FFF70EFEC01B0228C4D828688007F7D5DC
:100E90002868616920F0F80040EAC10028600DE090
:100EA000C6F80080FFF7FCFD074604E0FFF7F8FDF9
:100EB000C01B022823D828688007F7D420780007B1
:100EC0002CD57948A169D9B1C0F80090FFF7E8FDA9
:100ED000074604E0FFF7E4FDC01B02280FD8686A4C
:100EE0008007F7D571484FF4FA510068B0FBF1F074
:100EF000009000BF0098411E0091FAD20EE080E001
:100F0000C0F80080FFF7CCFD074604E0FFF7C8FDFE
:100F1000C01B022875D8686A8007F7D4207840077C
:100F200060D5E8690027C00008D4E86940F0805027
:100F3000E861E869012700F0805000905C48016892
:100F4000C90513D40168834641F480710160FFF73D
:100F5000A7FD824606E000BFFFF7A2FDA0EB0A0056
:100F600064284ED8DBF80000C005F5D5E0680128FC
:100F70000AD008B1052813D0286A20F001002862A1
:100F8000286A20F0040002E0286A40F0010028628C
:100F9000E06841F2883B98B1FFF782FD82460BE0A2
:100FA000286A40F004002862EEE700BFFFF778FDF2
:100FB000A0EB0A0159455AD8286A8007F6D50CE0FB
:100FC000FFF76EFD824605E0FFF76AFDA0EB0A0120
:100FD00059454CD8286A8007F6D41FB1E86920F03B
:100FE0008050E861E06988B36968C1F38101022932
:100FF00044D00228C6F8608004D0FFF751FD0446B3
:1010000038E034E0FFF74CFD074604E0FFF748FD09
:10101000C01B02282BD828688001F7D4206AB0F5BD
:10102000803F05D16868A16820F4003008436860FB
:10103000D4E908010843696821F474110843686021
:10104000C6F86090FFF72CFD044606E025E000BFDF
:10105000FFF726FD001B022809D828688001F7D574
:101060001BE000BFFFF71CFD001B022802D9032074
:10107000BDE8F88F28688001F4D40EE00128F7D08D
:101080006868226A00F48031914204D1616A00F4F8
:101090007010884201D00120EAE70020E8E7000054
:1010A0000010024000004242800442420C00002036
:1010B0000070004010B5401EB0F1807F01D30120C8
:1010C00010BD4FF0E02460610F21601700F0DFFDDC
:1010D0000020A06107202061002010BD70477047EC
:1010E00070B590F83C20012A26D0012480F83C40BD
:1010F000022280F83D2003685A689D6822F070063D
:101100000A6832435A600D4B02689A4208D0B2F125
:10111000804F05D00A4B9A4202D00A4B9A4204D122
:10112000496825F080031943916080F83D40002113
:1011300080F83C10084670BD022070BD002C0140B4
:10114000000400400008004010B5040003D094F8EB
:101150003D0010B107E0012010BD002084F83C00E4
:10116000204600F01FF8022084F83D00211D206871
:1011700000F0DAFB012084F8460084F83E0084F891
:101180003F0084F8400084F8410084F8420084F86D
:10119000430084F8440084F8450084F83D000020B2
:1011A00010BD000008B5154A0168154891420ED1DE
:1011B000816941F4006181618069002200F400606E
:1011C000009011461920FFF7D7FC192010E0B1F16B
:1011D000804F11D1C16941F00101C161C069002294
:1011E00000F00100009011461C20FFF7C5FC1C20F8
:1011F000BDE80840FFF7B2BC08BD0000002C01406C
:101200000010024070B5044690F83C00002501280B
:1012100017D0012684F83C60022084F83D00206845
:10122000826822F0770222F47F42826008685028A8
:1012300038D00DDC20284FD005DC90B3102811D118
:101240004AE0022070BD302846D040280AD13BE059
:1012500060282FD070280DD0B0F5805F03D0B0F596
:10126000005F12D0012584F83D60002084F83C0026
:10127000284670BDCB68D1E90121206800F090FBC1
:101280002068816841F0770109E0CB68D1E901214C
:10129000206800F085FB2068816841F4804181600E
:1012A000E1E719E0CA684968206800F08BFB50212B
:1012B000206806E0CA684968206800F094FB602155
:1012C000206800F077FBCEE7CA684968206800F024
:1012D00079FB40212068F4E7226801461046F0E7D8
:1012E00070472DE9F04104460068C66805694FF073
:1012F0000007A90713D5B10711D5F91E0161012017
:101300002077206880698007204602D0FFF7E8FF39
:1013100004E000F07EF8204600F07CF827776807AC
:1013200016D5700714D521686FF0040008610220FB
:1013300020772068806910F4407F204602D0FFF7B4
:10134000CFFF04E000F065F8204600F063F827774F
:10135000280715D5300713D521686FF008000861FC
:10136000042020772068C0698007204602D0FFF75C
:10137000B7FF04E000F04DF8204600F04BF8277767
:10138000E80616D5F00614D521686FF01000086144
:10139000082020772068C06910F4407F204602D0E2
:1013A000FFF79EFF04E000F034F8204600F032F82A
:1013B0002777E80708D0F00706D021686FF0010012
:1013C0000861204600F027F8280608D5300606D523
:1013D00021686FF0800008612046FFF77FFE6806F5
:1013E00008D5700606D521686FF0400008612046D8
:1013F00000F012F8A8060AD5B00608D521686FF0EB
:10140000200008612046BDE8F041FFF768BEBDE856
:10141000F0817047704770477047704770B5026839
:1014200004461068D168536910F00F0F56D003F0CE
:10143000010501F490762E436AD0C20705D0CA0593
:1014400003D5226C42F001022264420705D5DA0777
:1014500003D0226C42F002022264820705D5DA072B
:1014600003D0226C42F004022264020707D501F087
:1014700020022A4303D0226C42F008022264226C2C
:10148000002A3ED0800608D5880606D594F83D008F
:10149000222820462FD000F087FB20684069216C6D
:1014A000C0F38010090700D460B3204600F0BCFAF6
:1014B00020684169490621D5416921F04001416117
:1014C000A06BD8B138494163A06BFFF7D5F800286D
:1014D00017D0A06B416BBDE870400847830617D555
:1014E0008B0615D594F83D00222819D12046BDE879
:1014F000704000F0A7BA00F0A5FACEE72046FFF74B
:101500008CFF70BD2046FFF788FF0020206470BD6F
:10151000030634D50B0632D594F83D00122804D0CA
:101520002046BDE8704000F03FBB94F83D00122813
:10153000EDD1A068B0F5805F01D12069B0B1606ADB
:10154000411C6162216800784860608D401E000483
:10155000000C6085DBD12068C16821F08001C1608A
:101560002068C16841F04001C16070BD606A0088B8
:10157000C0F308005060606A801C6062E5E74006C6
:10158000F3D54806F1D5D168204621F04001D1605D
:1015900021684A6922F001024A61012184F83D1064
:1015A00000F0A1F870BD0000191A000870B5040021
:1015B00004D094F83D00002510B106E0012070BD74
:1015C00084F83C50204600F01BF8022084F83D00CF
:1015D000204600F07FFA2068016921F48041016112
:1015E0002068416921F02A0141612068C16841F405
:1015F0000051C1602564012084F83D00002070BDC9
:101600002DE9F04186B0002406460094019402942E
:10161000039400682E49884256D12E48816941F4CE
:1016200080418161816901F480410491816941F0C7
:10163000040181618069284D00F0040004904FF49A
:1016400040700090022001900320039069462846D4
:10165000FFF736F92815CDE90004694628460294BB
:10166000FFF72EF91E4D1D488027C5E90004C5E986
:1016700002474FF020082C61C5E905482846EC6177
:10168000FFF7F0F808B1FEF716FEB5636E62144D71
:1016900012484435143801C5102091C5104845F84A
:1016A00010494430C5E90548EC61FFF7DBF808B1A3
:1016B000FEF701FE75630022114625206E62FFF7DA
:1016C0005BFA2520FFF74AFA06B0BDE8F08100007A
:1016D000003801400010024000080140580002405C
:1016E0000C010020704770477047FEE7104810B5A6
:1016F0000E4901600921416000214FF440228160C0
:10170000C0E903124FF4801242610176417681767E
:101710000122C27601774177FEF7CEFE002803D082
:10172000BDE81040FEF7C7BD10BD000000640040DA
:10173000100000200D4808B5416941F001014161E8
:101740004069002200F00100009011460E20FFF7D2
:1017500013FA0E20FFF702FA002211460F20FFF7BE
:101760000BFABDE808400F20FFF7F8B9001002405F
:10177000094808B5816941F020018161816901F062
:1017800020010091816941F004018161806900F0CC
:101790000400009008BD00000010024010B586B0A3
:1017A000002417480094019402940394049413496C
:1017B0000594016040F2CF21C0E901146321C0E922
:1017C000031444618461FFF7BFFC08B1FEF773FDA9
:1017D0004FF48050009069460948FFF713FD08B1A7
:1017E000FEF769FD049404A905480594FFF778FC09
:1017F000002801D0FEF75FFD06B010BD002C0140AF
:101800003800002010B586B00024164800940194DA
:101810000294039404944FF080410594016040F2D7
:10182000CF21C0E901146321C0E903148461FFF7EB
:101830008BFC08B1FEF73FFD4FF4805000906946E5
:101840000848FFF7DFFC08B1FEF735FD049404A952
:1018500004480594FFF744FC002801D0FEF72BFD57
:1018600006B010BD800000200D4810B50B49016086
:101870004FF4E1314160002181600C22C160C0E978
:1018800004128161C1610162FFF790FE002803D05C
:10189000BDE81040FEF70FBD10BD0000003801404C
:1018A000C8000020FEE7FEE770477047FFF7FEB86C
:1018B00030B58FB028216846FEF786FC14210AA8AF
:1018C000FEF782FC01210804CDE9001000240294F7
:1018D00002250491CDE907504FF4E01009906846C5
:1018E000FFF758FA08B172B6FEE70F20CDE90A05F6
:1018F0004FF48060CDE90C4002210AA80E94FFF756
:101900006DF9002801D072B6FEE70FB030BD704708
:101910000148FFF7E6BC0000380000200148FFF74F
:10192000E0BC000080000020F0B50268194B1A4CA2
:101930001A4D4FF08047984205D0B84203D0A042DC
:1019400001D0A84203D122F070064A68324398427F
:1019500005D0B84203D0A04201D0A84203D122F45E
:101960004074CA6822434C6922F08002224302601C
:101970008A68C2620A688262984201D10969016379
:10198000012141610169C90703D0016921F0010109
:101990000161F0BD002C014000040040000800403F
:1019A00010B5846842EA032224F47F440A432243A8
:1019B000826010BD826822F070020A4342F0070183
:1019C0008160704710B5036A046A24F00104046260
:1019D000846924F0F00444EA021423F00A020A4362
:1019E0008461026210BD10B5036A046A24F0100419
:1019F0000462846923F0A00324F4704444EA0232B0
:101A000043EA01118261016210BD00000148FFF745
:101A100005BD0000C800002010B5406A00214186C5
:101A20004185FFF7FAFC10BD0168CA6822F4907284
:101A3000CA6001684A6922F001024A61012180F806
:101A40003D10704710B590F83D10222901D00220BA
:101A500010BD82684FF480539A4201D1016921B1CF
:101A6000C16A9A421ED04AB10AE00268C16A52684D
:101A7000C2F308020A80C16A891C08E002698AB1BF
:101A80000268526802F07F020A70C16A491CC16292
:101A9000418E491E4186418E39B10068FF21416067
:101AA000002010BD02685268EEE70168CA6822F0A3
:101AB0002002CA600168CA6822F48072CA600168A4
:101AC0004A6922F001024A61012180F83D10FFF7C6
:101AD00009FEE5E72DE9F04104460068C16821F000
:101AE0000C01C16020680169D4E906231A43E56846
:101AF000236A21F47C512B431A430A4342F40061C8
:101B000001612268D16841F20C6081432369A068B9
:101B1000184363690B431843D0602068416921F47E
:101B2000407141611F49206864253226884202D1F4
:101B3000FFF7FAF801E0FFF7E7F800EBC00101EB6F
:101B4000001160686FF0180C8000B1FBF0F3B3FB7C
:101B5000F5F3B1FBF0F7B1FBF0F203FB0CF307EB8D
:101B6000830306EB0313B2FBF5F2B3FBF5F31201AB
:101B700003F0F00302EB4302B1FBF0F3B1FBF0F032
:101B8000B0FBF5F000FB0CF003EB800006EB00105F
:101B9000B0FBF5F0216800F00F0010448860BDE84C
:101BA000F08100000038014010B590F83D10322956
:101BB00001D0022010BD418D4FF4805311B3016854
:101BC0000A68D24312061DD482689A4201D1026982
:101BD00052B1426A541C446212784A60418D491ED7
:101BE0004185418D49B10DE0426A1288C2F3080275
:101BF0004A60416A891C4162F0E70168CA6822F0C4
:101C00008002CA60418EF9B101680A68D243920627
:101C10001AD482689A4209D10269C2B9C26A496873
:101C2000C1F308011180C16A891C09E00AB902697F
:101C30006AB1496801F07F01C26A1170C16A491C2A
:101C4000C162418E491E4186418E11B115E049683D
:101C5000F2E70168CA6822F02002CA600168CA6817
:101C600022F48072CA6001684A6922F001024A6166
:101C7000012180F83D10FFF737FD002010BD000066
:101C80000148FEF71BBB000010000020FEE709071B
:101C9000090E002804DB00F1E02080F800147047F2
:101CA00000F00F0000F1E02080F8141D7047FEF7EF
:101CB00005FFFFF7FDFDFFF75BFDFFF73BFDFFF7BE
:101CC00015FDFFF76BFDFFF79DFDFFF7CDFDFEE76F
:101CD000010202030405060708090A0B0C0D0E0F8A
:101CE00010100000000000000000010203040607BD
:101CF0000809000000000102030400001C1D000888
:101D00000000002010000000280100082C1D000821
:101D100010000020E8070000440100080100000056
:0C1D2000100000000000000000127A001B
:04000005080000ED02
:00000001FF
